{
  "contractName": "Registry",
  "abi": [
    {
      "inputs": [],
      "stateMutability": "nonpayable",
      "type": "constructor"
    },
    {
      "anonymous": false,
      "inputs": [
        {
          "indexed": false,
          "internalType": "address",
          "name": "previousAdmin",
          "type": "address"
        },
        {
          "indexed": false,
          "internalType": "address",
          "name": "newAdmin",
          "type": "address"
        }
      ],
      "name": "AdminChanged",
      "type": "event"
    },
    {
      "anonymous": false,
      "inputs": [
        {
          "indexed": true,
          "internalType": "address",
          "name": "beacon",
          "type": "address"
        }
      ],
      "name": "BeaconUpgraded",
      "type": "event"
    },
    {
      "anonymous": false,
      "inputs": [
        {
          "indexed": false,
          "internalType": "uint8",
          "name": "version",
          "type": "uint8"
        }
      ],
      "name": "Initialized",
      "type": "event"
    },
    {
      "anonymous": false,
      "inputs": [
        {
          "indexed": true,
          "internalType": "bytes32",
          "name": "role",
          "type": "bytes32"
        },
        {
          "indexed": true,
          "internalType": "bytes32",
          "name": "previousAdminRole",
          "type": "bytes32"
        },
        {
          "indexed": true,
          "internalType": "bytes32",
          "name": "newAdminRole",
          "type": "bytes32"
        }
      ],
      "name": "RoleAdminChanged",
      "type": "event"
    },
    {
      "anonymous": false,
      "inputs": [
        {
          "indexed": true,
          "internalType": "bytes32",
          "name": "role",
          "type": "bytes32"
        },
        {
          "indexed": true,
          "internalType": "address",
          "name": "account",
          "type": "address"
        },
        {
          "indexed": true,
          "internalType": "address",
          "name": "sender",
          "type": "address"
        }
      ],
      "name": "RoleGranted",
      "type": "event"
    },
    {
      "anonymous": false,
      "inputs": [
        {
          "indexed": true,
          "internalType": "bytes32",
          "name": "role",
          "type": "bytes32"
        },
        {
          "indexed": true,
          "internalType": "address",
          "name": "account",
          "type": "address"
        },
        {
          "indexed": true,
          "internalType": "address",
          "name": "sender",
          "type": "address"
        }
      ],
      "name": "RoleRevoked",
      "type": "event"
    },
    {
      "anonymous": false,
      "inputs": [
        {
          "indexed": true,
          "internalType": "uint256",
          "name": "timestamp",
          "type": "uint256"
        },
        {
          "indexed": true,
          "internalType": "uint256",
          "name": "meter_id",
          "type": "uint256"
        },
        {
          "indexed": true,
          "internalType": "bool",
          "name": "state",
          "type": "bool"
        },
        {
          "indexed": false,
          "internalType": "address",
          "name": "from",
          "type": "address"
        }
      ],
      "name": "Switch",
      "type": "event"
    },
    {
      "anonymous": false,
      "inputs": [
        {
          "indexed": true,
          "internalType": "address",
          "name": "implementation",
          "type": "address"
        }
      ],
      "name": "Upgraded",
      "type": "event"
    },
    {
      "inputs": [],
      "name": "DEFAULT_ADMIN_ROLE",
      "outputs": [
        {
          "internalType": "bytes32",
          "name": "",
          "type": "bytes32"
        }
      ],
      "stateMutability": "view",
      "type": "function",
      "constant": true
    },
    {
      "inputs": [],
      "name": "UPGRADER_ROLE",
      "outputs": [
        {
          "internalType": "bytes32",
          "name": "",
          "type": "bytes32"
        }
      ],
      "stateMutability": "view",
      "type": "function",
      "constant": true
    },
    {
      "inputs": [],
      "name": "W3BSTREAM_ROLE",
      "outputs": [
        {
          "internalType": "bytes32",
          "name": "",
          "type": "bytes32"
        }
      ],
      "stateMutability": "view",
      "type": "function",
      "constant": true
    },
    {
      "inputs": [
        {
          "internalType": "bytes32",
          "name": "role",
          "type": "bytes32"
        }
      ],
      "name": "getRoleAdmin",
      "outputs": [
        {
          "internalType": "bytes32",
          "name": "",
          "type": "bytes32"
        }
      ],
      "stateMutability": "view",
      "type": "function",
      "constant": true
    },
    {
      "inputs": [
        {
          "internalType": "bytes32",
          "name": "role",
          "type": "bytes32"
        },
        {
          "internalType": "address",
          "name": "account",
          "type": "address"
        }
      ],
      "name": "grantRole",
      "outputs": [],
      "stateMutability": "nonpayable",
      "type": "function"
    },
    {
      "inputs": [
        {
          "internalType": "bytes32",
          "name": "role",
          "type": "bytes32"
        },
        {
          "internalType": "address",
          "name": "account",
          "type": "address"
        }
      ],
      "name": "hasRole",
      "outputs": [
        {
          "internalType": "bool",
          "name": "",
          "type": "bool"
        }
      ],
      "stateMutability": "view",
      "type": "function",
      "constant": true
    },
    {
      "inputs": [],
      "name": "proxiableUUID",
      "outputs": [
        {
          "internalType": "bytes32",
          "name": "",
          "type": "bytes32"
        }
      ],
      "stateMutability": "view",
      "type": "function",
      "constant": true
    },
    {
      "inputs": [
        {
          "internalType": "bytes32",
          "name": "role",
          "type": "bytes32"
        },
        {
          "internalType": "address",
          "name": "account",
          "type": "address"
        }
      ],
      "name": "renounceRole",
      "outputs": [],
      "stateMutability": "nonpayable",
      "type": "function"
    },
    {
      "inputs": [
        {
          "internalType": "bytes32",
          "name": "role",
          "type": "bytes32"
        },
        {
          "internalType": "address",
          "name": "account",
          "type": "address"
        }
      ],
      "name": "revokeRole",
      "outputs": [],
      "stateMutability": "nonpayable",
      "type": "function"
    },
    {
      "inputs": [
        {
          "internalType": "bytes4",
          "name": "interfaceId",
          "type": "bytes4"
        }
      ],
      "name": "supportsInterface",
      "outputs": [
        {
          "internalType": "bool",
          "name": "",
          "type": "bool"
        }
      ],
      "stateMutability": "view",
      "type": "function",
      "constant": true
    },
    {
      "inputs": [
        {
          "internalType": "address",
          "name": "newImplementation",
          "type": "address"
        }
      ],
      "name": "upgradeTo",
      "outputs": [],
      "stateMutability": "nonpayable",
      "type": "function"
    },
    {
      "inputs": [
        {
          "internalType": "address",
          "name": "newImplementation",
          "type": "address"
        },
        {
          "internalType": "bytes",
          "name": "data",
          "type": "bytes"
        }
      ],
      "name": "upgradeToAndCall",
      "outputs": [],
      "stateMutability": "payable",
      "type": "function",
      "payable": true
    },
    {
      "inputs": [],
      "name": "initialize",
      "outputs": [],
      "stateMutability": "nonpayable",
      "type": "function"
    },
    {
      "inputs": [
        {
          "internalType": "uint256",
          "name": "meter_id",
          "type": "uint256"
        },
        {
          "internalType": "bool",
          "name": "state",
          "type": "bool"
        }
      ],
      "name": "_switch",
      "outputs": [],
      "stateMutability": "nonpayable",
      "type": "function"
    },
    {
      "inputs": [
        {
          "internalType": "uint256",
          "name": "meter_id",
          "type": "uint256"
        }
      ],
      "name": "stateOf",
      "outputs": [
        {
          "internalType": "bool",
          "name": "",
          "type": "bool"
        }
      ],
      "stateMutability": "view",
      "type": "function",
      "constant": true
    }
  ],
  "bytecode": "0x60a06040523073ffffffffffffffffffffffffffffffffffffffff1660809073ffffffffffffffffffffffffffffffffffffffff168152503480156200004457600080fd5b50620000556200005b60201b60201c565b62000206565b600060019054906101000a900460ff1615620000ae576040517f08c379a0000000000000000000000000000000000000000000000000000000008152600401620000a590620001a9565b60405180910390fd5b60ff801660008054906101000a900460ff1660ff161015620001205760ff6000806101000a81548160ff021916908360ff1602179055507f7f26b83ff96e1f2b6a682f133852f6798a09c465da95921460cefb384740249860ff604051620001179190620001e9565b60405180910390a15b565b600082825260208201905092915050565b7f496e697469616c697a61626c653a20636f6e747261637420697320696e69746960008201527f616c697a696e6700000000000000000000000000000000000000000000000000602082015250565b60006200019160278362000122565b91506200019e8262000133565b604082019050919050565b60006020820190508181036000830152620001c48162000182565b9050919050565b600060ff82169050919050565b620001e381620001cb565b82525050565b6000602082019050620002006000830184620001d8565b92915050565b6080516124fd6200023e600039600081816104f7015281816105850152818161067f0152818161070d01526107bd01526124fd6000f3fe6080604052600436106100e85760003560e01c806352d1902d1161008a578063d547741f11610059578063d547741f146102e5578063d5e0ea681461030e578063d64705c214610339578063f72c0d8b14610362576100e8565b806352d1902d1461023b5780638129fc1c1461026657806391d148541461027d578063a217fddf146102ba576100e8565b80632f2ff15d116100c65780632f2ff15d146101a457806336568abe146101cd5780633659cfe6146101f65780634f1ef2861461021f576100e8565b806301ffc9a7146100ed578063131a7e241461012a578063248a9ca314610167575b600080fd5b3480156100f957600080fd5b50610114600480360381019061010f9190611659565b61038d565b60405161012191906116a1565b60405180910390f35b34801561013657600080fd5b50610151600480360381019061014c91906116f2565b610407565b60405161015e91906116a1565b60405180910390f35b34801561017357600080fd5b5061018e60048036038101906101899190611755565b610431565b60405161019b9190611791565b60405180910390f35b3480156101b057600080fd5b506101cb60048036038101906101c6919061180a565b610451565b005b3480156101d957600080fd5b506101f460048036038101906101ef919061180a565b610472565b005b34801561020257600080fd5b5061021d6004803603810190610218919061184a565b6104f5565b005b610239600480360381019061023491906119bd565b61067d565b005b34801561024757600080fd5b506102506107b9565b60405161025d9190611791565b60405180910390f35b34801561027257600080fd5b5061027b610872565b005b34801561028957600080fd5b506102a4600480360381019061029f919061180a565b6109ef565b6040516102b191906116a1565b60405180910390f35b3480156102c657600080fd5b506102cf610a5a565b6040516102dc9190611791565b60405180910390f35b3480156102f157600080fd5b5061030c6004803603810190610307919061180a565b610a61565b005b34801561031a57600080fd5b50610323610a82565b6040516103309190611791565b60405180910390f35b34801561034557600080fd5b50610360600480360381019061035b9190611a45565b610aa6565b005b34801561036e57600080fd5b50610377610b3c565b6040516103849190611791565b60405180910390f35b60007f7965db0b000000000000000000000000000000000000000000000000000000007bffffffffffffffffffffffffffffffffffffffffffffffffffffffff1916827bffffffffffffffffffffffffffffffffffffffffffffffffffffffff1916148061040057506103ff82610b60565b5b9050919050565b600060fb600083815260200190815260200160002060009054906101000a900460ff169050919050565b600060656000838152602001908152602001600020600101549050919050565b61045a82610431565b61046381610bca565b61046d8383610bde565b505050565b61047a610cbf565b73ffffffffffffffffffffffffffffffffffffffff168173ffffffffffffffffffffffffffffffffffffffff16146104e7576040517f08c379a00000000000000000000000000000000000000000000000000000000081526004016104de90611b08565b60405180910390fd5b6104f18282610cc7565b5050565b7f000000000000000000000000000000000000000000000000000000000000000073ffffffffffffffffffffffffffffffffffffffff163073ffffffffffffffffffffffffffffffffffffffff1603610583576040517f08c379a000000000000000000000000000000000000000000000000000000000815260040161057a90611b9a565b60405180910390fd5b7f000000000000000000000000000000000000000000000000000000000000000073ffffffffffffffffffffffffffffffffffffffff166105c2610da9565b73ffffffffffffffffffffffffffffffffffffffff1614610618576040517f08c379a000000000000000000000000000000000000000000000000000000000815260040161060f90611c2c565b60405180910390fd5b61062181610e00565b61067a81600067ffffffffffffffff8111156106405761063f611892565b5b6040519080825280601f01601f1916602001820160405280156106725781602001600182028036833780820191505090505b506000610e2e565b50565b7f000000000000000000000000000000000000000000000000000000000000000073ffffffffffffffffffffffffffffffffffffffff163073ffffffffffffffffffffffffffffffffffffffff160361070b576040517f08c379a000000000000000000000000000000000000000000000000000000000815260040161070290611b9a565b60405180910390fd5b7f000000000000000000000000000000000000000000000000000000000000000073ffffffffffffffffffffffffffffffffffffffff1661074a610da9565b73ffffffffffffffffffffffffffffffffffffffff16146107a0576040517f08c379a000000000000000000000000000000000000000000000000000000000815260040161079790611c2c565b60405180910390fd5b6107a982610e00565b6107b582826001610e2e565b5050565b60007f000000000000000000000000000000000000000000000000000000000000000073ffffffffffffffffffffffffffffffffffffffff163073ffffffffffffffffffffffffffffffffffffffff1614610849576040517f08c379a000000000000000000000000000000000000000000000000000000000815260040161084090611cbe565b60405180910390fd5b7f360894a13ba1a3210667c828492db98dca3e2076cc3735a920a3ca505d382bbc60001b905090565b60008060019054906101000a900460ff161590508080156108a35750600160008054906101000a900460ff1660ff16105b806108d057506108b230610f9c565b1580156108cf5750600160008054906101000a900460ff1660ff16145b5b61090f576040517f08c379a000000000000000000000000000000000000000000000000000000000815260040161090690611d50565b60405180910390fd5b60016000806101000a81548160ff021916908360ff160217905550801561094c576001600060016101000a81548160ff0219169083151502179055505b610954610fbf565b61095c611010565b6109696000801b33610bde565b6109937f189ab7a9244df0848122154315af71fe140f3db0fe014031783b0946b8c9d2e333610bde565b80156109ec5760008060016101000a81548160ff0219169083151502179055507f7f26b83ff96e1f2b6a682f133852f6798a09c465da95921460cefb384740249860016040516109e39190611dc2565b60405180910390a15b50565b60006065600084815260200190815260200160002060000160008373ffffffffffffffffffffffffffffffffffffffff1673ffffffffffffffffffffffffffffffffffffffff16815260200190815260200160002060009054906101000a900460ff16905092915050565b6000801b81565b610a6a82610431565b610a7381610bca565b610a7d8383610cc7565b505050565b7fc3ec6c197397d22d2b88ef2b9eed75a4641f3349d71afc5feb927ff53793785d81565b7fc3ec6c197397d22d2b88ef2b9eed75a4641f3349d71afc5feb927ff53793785d610ad081610bca565b81151583427f42a2df44b0e222f974cdd26edbfecfccc28d997a39d40f786a9055acfc0b5a1e33604051610b049190611dec565b60405180910390a48160fb600085815260200190815260200160002060006101000a81548160ff021916908315150217905550505050565b7f189ab7a9244df0848122154315af71fe140f3db0fe014031783b0946b8c9d2e381565b60007f01ffc9a7000000000000000000000000000000000000000000000000000000007bffffffffffffffffffffffffffffffffffffffffffffffffffffffff1916827bffffffffffffffffffffffffffffffffffffffffffffffffffffffff1916149050919050565b610bdb81610bd6610cbf565b611061565b50565b610be882826109ef565b610cbb5760016065600084815260200190815260200160002060000160008373ffffffffffffffffffffffffffffffffffffffff1673ffffffffffffffffffffffffffffffffffffffff16815260200190815260200160002060006101000a81548160ff021916908315150217905550610c60610cbf565b73ffffffffffffffffffffffffffffffffffffffff168173ffffffffffffffffffffffffffffffffffffffff16837f2f8788117e7eff1d82e926ec794901d17c78024a50270940304540a733656f0d60405160405180910390a45b5050565b600033905090565b610cd182826109ef565b15610da55760006065600084815260200190815260200160002060000160008373ffffffffffffffffffffffffffffffffffffffff1673ffffffffffffffffffffffffffffffffffffffff16815260200190815260200160002060006101000a81548160ff021916908315150217905550610d4a610cbf565b73ffffffffffffffffffffffffffffffffffffffff168173ffffffffffffffffffffffffffffffffffffffff16837ff6391f5c32d9c69d2a47ea670b442974b53935d1edc7fd64eb21e047a839171b60405160405180910390a45b5050565b6000610dd77f360894a13ba1a3210667c828492db98dca3e2076cc3735a920a3ca505d382bbc60001b6110e6565b60000160009054906101000a900473ffffffffffffffffffffffffffffffffffffffff16905090565b7f189ab7a9244df0848122154315af71fe140f3db0fe014031783b0946b8c9d2e3610e2a81610bca565b5050565b610e5a7f4910fdfa16fed3260ed0e7147f7cc6da11a60208b5b9406d12a635614ffd914360001b6110f0565b60000160009054906101000a900460ff1615610e7e57610e79836110fa565b610f97565b8273ffffffffffffffffffffffffffffffffffffffff166352d1902d6040518163ffffffff1660e01b8152600401602060405180830381865afa925050508015610ee657506040513d601f19601f82011682018060405250810190610ee39190611e1c565b60015b610f25576040517f08c379a0000000000000000000000000000000000000000000000000000000008152600401610f1c90611ebb565b60405180910390fd5b7f360894a13ba1a3210667c828492db98dca3e2076cc3735a920a3ca505d382bbc60001b8114610f8a576040517f08c379a0000000000000000000000000000000000000000000000000000000008152600401610f8190611f4d565b60405180910390fd5b50610f968383836111b3565b5b505050565b6000808273ffffffffffffffffffffffffffffffffffffffff163b119050919050565b600060019054906101000a900460ff1661100e576040517f08c379a000000000000000000000000000000000000000000000000000000000815260040161100590611fdf565b60405180910390fd5b565b600060019054906101000a900460ff1661105f576040517f08c379a000000000000000000000000000000000000000000000000000000000815260040161105690611fdf565b60405180910390fd5b565b61106b82826109ef565b6110e257611078816111df565b6110868360001c602061120c565b604051602001611097929190612108565b6040516020818303038152906040526040517f08c379a00000000000000000000000000000000000000000000000000000000081526004016110d9919061217b565b60405180910390fd5b5050565b6000819050919050565b6000819050919050565b61110381610f9c565b611142576040517f08c379a00000000000000000000000000000000000000000000000000000000081526004016111399061220f565b60405180910390fd5b8061116f7f360894a13ba1a3210667c828492db98dca3e2076cc3735a920a3ca505d382bbc60001b6110e6565b60000160006101000a81548173ffffffffffffffffffffffffffffffffffffffff021916908373ffffffffffffffffffffffffffffffffffffffff16021790555050565b6111bc83611448565b6000825111806111c95750805b156111da576111d88383611497565b505b505050565b60606112058273ffffffffffffffffffffffffffffffffffffffff16601460ff1661120c565b9050919050565b60606000600283600261121f919061225e565b61122991906122b8565b67ffffffffffffffff81111561124257611241611892565b5b6040519080825280601f01601f1916602001820160405280156112745781602001600182028036833780820191505090505b5090507f3000000000000000000000000000000000000000000000000000000000000000816000815181106112ac576112ab6122ec565b5b60200101907effffffffffffffffffffffffffffffffffffffffffffffffffffffffffffff1916908160001a9053507f7800000000000000000000000000000000000000000000000000000000000000816001815181106113105761130f6122ec565b5b60200101907effffffffffffffffffffffffffffffffffffffffffffffffffffffffffffff1916908160001a90535060006001846002611350919061225e565b61135a91906122b8565b90505b60018111156113fa577f3031323334353637383961626364656600000000000000000000000000000000600f86166010811061139c5761139b6122ec565b5b1a60f81b8282815181106113b3576113b26122ec565b5b60200101907effffffffffffffffffffffffffffffffffffffffffffffffffffffffffffff1916908160001a905350600485901c9450806113f39061231b565b905061135d565b506000841461143e576040517f08c379a000000000000000000000000000000000000000000000000000000000815260040161143590612390565b60405180910390fd5b8091505092915050565b611451816110fa565b8073ffffffffffffffffffffffffffffffffffffffff167fbc7cd75a20ee27fd9adebab32041f755214dbc6bffa90cc0225b39da2e5c2d3b60405160405180910390a250565b60606114a283610f9c565b6114e1576040517f08c379a00000000000000000000000000000000000000000000000000000000081526004016114d890612422565b60405180910390fd5b6000808473ffffffffffffffffffffffffffffffffffffffff16846040516115099190612489565b600060405180830381855af49150503d8060008114611544576040519150601f19603f3d011682016040523d82523d6000602084013e611549565b606091505b509150915061157182826040518060600160405280602781526020016124a16027913961157b565b9250505092915050565b6060831561158b57829050611596565b611595838361159d565b5b9392505050565b6000825111156115b05781518083602001fd5b806040517f08c379a00000000000000000000000000000000000000000000000000000000081526004016115e4919061217b565b60405180910390fd5b6000604051905090565b600080fd5b600080fd5b60007fffffffff0000000000000000000000000000000000000000000000000000000082169050919050565b61163681611601565b811461164157600080fd5b50565b6000813590506116538161162d565b92915050565b60006020828403121561166f5761166e6115f7565b5b600061167d84828501611644565b91505092915050565b60008115159050919050565b61169b81611686565b82525050565b60006020820190506116b66000830184611692565b92915050565b6000819050919050565b6116cf816116bc565b81146116da57600080fd5b50565b6000813590506116ec816116c6565b92915050565b600060208284031215611708576117076115f7565b5b6000611716848285016116dd565b91505092915050565b6000819050919050565b6117328161171f565b811461173d57600080fd5b50565b60008135905061174f81611729565b92915050565b60006020828403121561176b5761176a6115f7565b5b600061177984828501611740565b91505092915050565b61178b8161171f565b82525050565b60006020820190506117a66000830184611782565b92915050565b600073ffffffffffffffffffffffffffffffffffffffff82169050919050565b60006117d7826117ac565b9050919050565b6117e7816117cc565b81146117f257600080fd5b50565b600081359050611804816117de565b92915050565b60008060408385031215611821576118206115f7565b5b600061182f85828601611740565b9250506020611840858286016117f5565b9150509250929050565b6000602082840312156118605761185f6115f7565b5b600061186e848285016117f5565b91505092915050565b600080fd5b600080fd5b6000601f19601f8301169050919050565b7f4e487b7100000000000000000000000000000000000000000000000000000000600052604160045260246000fd5b6118ca82611881565b810181811067ffffffffffffffff821117156118e9576118e8611892565b5b80604052505050565b60006118fc6115ed565b905061190882826118c1565b919050565b600067ffffffffffffffff82111561192857611927611892565b5b61193182611881565b9050602081019050919050565b82818337600083830152505050565b600061196061195b8461190d565b6118f2565b90508281526020810184848401111561197c5761197b61187c565b5b61198784828561193e565b509392505050565b600082601f8301126119a4576119a3611877565b5b81356119b484826020860161194d565b91505092915050565b600080604083850312156119d4576119d36115f7565b5b60006119e2858286016117f5565b925050602083013567ffffffffffffffff811115611a0357611a026115fc565b5b611a0f8582860161198f565b9150509250929050565b611a2281611686565b8114611a2d57600080fd5b50565b600081359050611a3f81611a19565b92915050565b60008060408385031215611a5c57611a5b6115f7565b5b6000611a6a858286016116dd565b9250506020611a7b85828601611a30565b9150509250929050565b600082825260208201905092915050565b7f416363657373436f6e74726f6c3a2063616e206f6e6c792072656e6f756e636560008201527f20726f6c657320666f722073656c660000000000000000000000000000000000602082015250565b6000611af2602f83611a85565b9150611afd82611a96565b604082019050919050565b60006020820190508181036000830152611b2181611ae5565b9050919050565b7f46756e6374696f6e206d7573742062652063616c6c6564207468726f7567682060008201527f64656c656761746563616c6c0000000000000000000000000000000000000000602082015250565b6000611b84602c83611a85565b9150611b8f82611b28565b604082019050919050565b60006020820190508181036000830152611bb381611b77565b9050919050565b7f46756e6374696f6e206d7573742062652063616c6c6564207468726f7567682060008201527f6163746976652070726f78790000000000000000000000000000000000000000602082015250565b6000611c16602c83611a85565b9150611c2182611bba565b604082019050919050565b60006020820190508181036000830152611c4581611c09565b9050919050565b7f555550535570677261646561626c653a206d757374206e6f742062652063616c60008201527f6c6564207468726f7567682064656c656761746563616c6c0000000000000000602082015250565b6000611ca8603883611a85565b9150611cb382611c4c565b604082019050919050565b60006020820190508181036000830152611cd781611c9b565b9050919050565b7f496e697469616c697a61626c653a20636f6e747261637420697320616c72656160008201527f647920696e697469616c697a6564000000000000000000000000000000000000602082015250565b6000611d3a602e83611a85565b9150611d4582611cde565b604082019050919050565b60006020820190508181036000830152611d6981611d2d565b9050919050565b6000819050919050565b600060ff82169050919050565b6000819050919050565b6000611dac611da7611da284611d70565b611d87565b611d7a565b9050919050565b611dbc81611d91565b82525050565b6000602082019050611dd76000830184611db3565b92915050565b611de6816117cc565b82525050565b6000602082019050611e016000830184611ddd565b92915050565b600081519050611e1681611729565b92915050565b600060208284031215611e3257611e316115f7565b5b6000611e4084828501611e07565b91505092915050565b7f45524331393637557067726164653a206e657720696d706c656d656e7461746960008201527f6f6e206973206e6f742055555053000000000000000000000000000000000000602082015250565b6000611ea5602e83611a85565b9150611eb082611e49565b604082019050919050565b60006020820190508181036000830152611ed481611e98565b9050919050565b7f45524331393637557067726164653a20756e737570706f727465642070726f7860008201527f6961626c65555549440000000000000000000000000000000000000000000000602082015250565b6000611f37602983611a85565b9150611f4282611edb565b604082019050919050565b60006020820190508181036000830152611f6681611f2a565b9050919050565b7f496e697469616c697a61626c653a20636f6e7472616374206973206e6f74206960008201527f6e697469616c697a696e67000000000000000000000000000000000000000000602082015250565b6000611fc9602b83611a85565b9150611fd482611f6d565b604082019050919050565b60006020820190508181036000830152611ff881611fbc565b9050919050565b600081905092915050565b7f416363657373436f6e74726f6c3a206163636f756e7420000000000000000000600082015250565b6000612040601783611fff565b915061204b8261200a565b601782019050919050565b600081519050919050565b60005b8381101561207f578082015181840152602081019050612064565b60008484015250505050565b600061209682612056565b6120a08185611fff565b93506120b0818560208601612061565b80840191505092915050565b7f206973206d697373696e6720726f6c6520000000000000000000000000000000600082015250565b60006120f2601183611fff565b91506120fd826120bc565b601182019050919050565b600061211382612033565b915061211f828561208b565b915061212a826120e5565b9150612136828461208b565b91508190509392505050565b600061214d82612056565b6121578185611a85565b9350612167818560208601612061565b61217081611881565b840191505092915050565b600060208201905081810360008301526121958184612142565b905092915050565b7f455243313936373a206e657720696d706c656d656e746174696f6e206973206e60008201527f6f74206120636f6e747261637400000000000000000000000000000000000000602082015250565b60006121f9602d83611a85565b91506122048261219d565b604082019050919050565b60006020820190508181036000830152612228816121ec565b9050919050565b7f4e487b7100000000000000000000000000000000000000000000000000000000600052601160045260246000fd5b6000612269826116bc565b9150612274836116bc565b9250817fffffffffffffffffffffffffffffffffffffffffffffffffffffffffffffffff04831182151516156122ad576122ac61222f565b5b828202905092915050565b60006122c3826116bc565b91506122ce836116bc565b92508282019050808211156122e6576122e561222f565b5b92915050565b7f4e487b7100000000000000000000000000000000000000000000000000000000600052603260045260246000fd5b6000612326826116bc565b9150600082036123395761233861222f565b5b600182039050919050565b7f537472696e67733a20686578206c656e67746820696e73756666696369656e74600082015250565b600061237a602083611a85565b915061238582612344565b602082019050919050565b600060208201905081810360008301526123a98161236d565b9050919050565b7f416464726573733a2064656c65676174652063616c6c20746f206e6f6e2d636f60008201527f6e74726163740000000000000000000000000000000000000000000000000000602082015250565b600061240c602683611a85565b9150612417826123b0565b604082019050919050565b6000602082019050818103600083015261243b816123ff565b9050919050565b600081519050919050565b600081905092915050565b600061246382612442565b61246d818561244d565b935061247d818560208601612061565b80840191505092915050565b60006124958284612458565b91508190509291505056fe416464726573733a206c6f772d6c6576656c2064656c65676174652063616c6c206661696c6564a26469706673582212202b17a69343721998e402b3371ecd449497aceb87c7082ea0399e0945465ccb0c64736f6c63430008100033",
  "immutableReferences": {
    "997": [
      {
        "length": 32,
        "start": 1271
      },
      {
        "length": 32,
        "start": 1413
      },
      {
        "length": 32,
        "start": 1663
      },
      {
        "length": 32,
        "start": 1805
      },
      {
        "length": 32,
        "start": 1981
      }
    ]
  },
  "source": "// SPDX-License-Identifier: MIT\npragma solidity ^0.8.9;\n\nimport \"@openzeppelin/contracts-upgradeable/access/AccessControlUpgradeable.sol\";\nimport \"@openzeppelin/contracts-upgradeable/proxy/utils/Initializable.sol\";\nimport \"@openzeppelin/contracts-upgradeable/proxy/utils/UUPSUpgradeable.sol\";\n\nimport \"./IRegistry.sol\";\n\ncontract Registry is\n    iRegistry,\n    Initializable,\n    AccessControlUpgradeable,\n    UUPSUpgradeable\n{\n    // map device id -> state\n    mapping(uint256 => bool) private _state;\n\n    bytes32 public constant UPGRADER_ROLE = keccak256(\"UPGRADER_ROLE\");\n    bytes32 public constant W3BSTREAM_ROLE = keccak256(\"W3BSTREAM_ROLE\");\n\n    /// @custom:oz-upgrades-unsafe-allow constructor\n    constructor() {\n        _disableInitializers();\n    }\n\n    function initialize() public initializer {\n        __AccessControl_init();\n        __UUPSUpgradeable_init();\n\n        _grantRole(DEFAULT_ADMIN_ROLE, msg.sender);\n        _grantRole(UPGRADER_ROLE, msg.sender);\n    }\n\n    function _authorizeUpgrade(address newImplementation)\n        internal\n        override\n        onlyRole(UPGRADER_ROLE)\n    {}\n\n    function _switch(uint256 meter_id, bool state)\n        external\n        onlyRole(W3BSTREAM_ROLE)\n    {\n        emit Switch(block.timestamp, meter_id, state, msg.sender);\n        _state[meter_id] = state;\n    }\n\n    function stateOf(uint256 meter_id) external view returns (bool) {\n        return _state[meter_id];\n    }\n}\n",
  "sourcePath": "/home/ichristwin/Dev/Switch-W3bstream-Meter-Registry/contracts/Registry.sol",
  "compiler": {
    "name": "solc",
    "version": "0.8.16+commit.07a7930e.Emscripten.clang"
  },
  "schemaVersion": "3.4.9",
  "updatedAt": "2023-02-04T09:46:53.443Z",
  "networkType": "ethereum",
  "devdoc": {
    "kind": "dev",
    "methods": {
      "constructor": {
        "custom:oz-upgrades-unsafe-allow": "constructor"
      },
      "getRoleAdmin(bytes32)": {
        "details": "Returns the admin role that controls `role`. See {grantRole} and {revokeRole}. To change a role's admin, use {_setRoleAdmin}."
      },
      "grantRole(bytes32,address)": {
        "details": "Grants `role` to `account`. If `account` had not been already granted `role`, emits a {RoleGranted} event. Requirements: - the caller must have ``role``'s admin role. May emit a {RoleGranted} event."
      },
      "hasRole(bytes32,address)": {
        "details": "Returns `true` if `account` has been granted `role`."
      },
      "proxiableUUID()": {
        "details": "Implementation of the ERC1822 {proxiableUUID} function. This returns the storage slot used by the implementation. It is used to validate the implementation's compatibility when performing an upgrade. IMPORTANT: A proxy pointing at a proxiable contract should not be considered proxiable itself, because this risks bricking a proxy that upgrades to it, by delegating to itself until out of gas. Thus it is critical that this function revert if invoked through a proxy. This is guaranteed by the `notDelegated` modifier."
      },
      "renounceRole(bytes32,address)": {
        "details": "Revokes `role` from the calling account. Roles are often managed via {grantRole} and {revokeRole}: this function's purpose is to provide a mechanism for accounts to lose their privileges if they are compromised (such as when a trusted device is misplaced). If the calling account had been revoked `role`, emits a {RoleRevoked} event. Requirements: - the caller must be `account`. May emit a {RoleRevoked} event."
      },
      "revokeRole(bytes32,address)": {
        "details": "Revokes `role` from `account`. If `account` had been granted `role`, emits a {RoleRevoked} event. Requirements: - the caller must have ``role``'s admin role. May emit a {RoleRevoked} event."
      },
      "supportsInterface(bytes4)": {
        "details": "See {IERC165-supportsInterface}."
      },
      "upgradeTo(address)": {
        "details": "Upgrade the implementation of the proxy to `newImplementation`. Calls {_authorizeUpgrade}. Emits an {Upgraded} event."
      },
      "upgradeToAndCall(address,bytes)": {
        "details": "Upgrade the implementation of the proxy to `newImplementation`, and subsequently execute the function call encoded in `data`. Calls {_authorizeUpgrade}. Emits an {Upgraded} event."
      }
    },
    "version": 1
  },
  "userdoc": {
    "kind": "user",
    "methods": {},
    "version": 1
  }
}